:020000040000fa
:080000000002040000000000f2
:020000040000fa
:0400080046050000a9
:020000040000fa
:04000c00ac04000040
:020000040000fa
:04001000cc0400001c
:020000040000fa
:04001400860500005d
:020000040000fa
:040018006605000079
:020000040000fa
:04001c00ce0500000d
:020000040000fa
:04002000ec040000ec
:020000040000fa
:04002400ce05000005
:020000040000fa
:04002800ce05000001
:020000040000fa
:04002c00ce050000fd
:020000040000fa
:04003000ce050000f9
:020000040000fa
:04003400ce050000f5
:020000040000fa
:04003800ce050000f1
:020000040000fa
:04003c00ce050000ed
:020000040000fa
:04004000ce050000e9
:020000040000fa
:04004400ce050000e5
:020000040000fa
:04004800ce050000e1
:020000040000fa
:04004c00ce050000dd
:020000040000fa
:04005000ce050000d9
:020000040000fa
:04005400ce050000d5
:020000040000fa
:04005800ce050000d1
:020000040000fa
:04005c00ce050000cd
:020000040000fa
:04006000ce050000c9
:020000040000fa
:04006400ce050000c5
:020000040000fa
:04006800ce050000c1
:020000040000fa
:04006c00ce050000bd
:020000040000fa
:04007000ce050000b9
:020000040000fa
:04007400ce050000b5
:020000040000fa
:04007800ce050000b1
:020000040000fa
:04007c00ce050000ad
:020000040000fa
:04008000ce050000a9
:020000040000fa
:04008400ce050000a5
:020000040000fa
:04008800a8050000c7
:020000040000fa
:04008c00ce0500009d
:020000040000fa
:04009000ce05000099
:020000040000fa
:04009400ce05000095
:020000040000fa
:04009800ce05000091
:020000040000fa
:04009c00ce0500008d
:020000040000fa
:0400a000ce05000089
:020000040000fa
:0400a400ce05000085
:020000040000fa
:0400a800ce05000081
:020000040000fa
:0400ac00ce0500007d
:020000040000fa
:0400b000ce05000079
:020000040000fa
:0400b400ce05000075
:020000040000fa
:0400b800ce05000071
:020000040000fa
:0400bc00ce0500006d
:020000040000fa
:0400c000ce05000069
:020000040000fa
:0400c400ce05000065
:020000040000fa
:0400c800ce05000061
:020000040000fa
:0400cc00ce0500005d
:020000040000fa
:0400d000ce05000059
:020000040000fa
:0400d400ce05000055
:020000040000fa
:0400d800ce05000051
:020000040000fa
:0400dc008604000096
:020000040000fa
:0400e000ce05000049
:020000040000fa
:0400e400ce05000045
:020000040000fa
:0400e800ce05000041
:020000040000fa
:0400ec00ce0500003d
:020000040000fa
:0400f000ce05000039
:020000040000fa
:0400f400ce05000035
:020000040000fa
:0400f800ce05000031
:020000040000fa
:0400fc00ce0500002d
:020000040000fa
:04010000ce05000028
:020000040000fa
:04010400ce05000024
:020000040000fa
:04010800ce05000020
:020000040000fa
:04010c00ce0500001c
:020000040000fa
:04011000ce05000018
:020000040000fa
:04011400ce05000014
:020000040000fa
:04011800ce05000010
:020000040000fa
:04011c00ce0500000c
:020000040000fa
:04012000ce05000008
:020000040000fa
:04012400ce05000004
:020000040000fa
:04012800ce05000000
:020000040000fa
:04012c00ce050000fc
:020000040000fa
:04013000ce050000f8
:020000040000fa
:0401340002040000c1
:020000040000fa
:040138002e04000091
:020000040000fa
:04013c005a04000061
:020000040000fa
:04014000ce050000e8
:020000040000fa
:04014400ce050000e4
:020000040000fa
:04014800ce050000e0
:020000040000fa
:04014c00ce050000dc
:020000040000fa
:04015000ce050000d8
:020000040000fa
:04015400ce050000d4
:020000040000fa
:04015800ce050000d0
:020000040000fa
:04015c00ce050000cc
:020000040000fa
:04016000ce050000c8
:020000040000fa
:04016400ce050000c4
:020000040000fa
:04016800ce050000c0
:020000040000fa
:04016c00ce050000bc
:020000040000fa
:04017000ce050000b8
:020000040000fa
:04017400ce050000b4
:020000040000fa
:04017800ce050000b0
:020000040000fa
:04017c00ce050000ac
:020000040000fa
:04018000ce050000a8
:020000040000fa
:04018400ce050000a4
:020000040000fa
:04018800ce050000a0
:020000040000fa
:04018c00ce0500009c
:020000040000fa
:04019000ce05000098
:020000040000fa
:04019400ce05000094
:020000040000fa
:04019800ce05000090
:020000040000fa
:04019c00ce0500008c
:020000040000fa
:0401a000ce05000088
:020000040000fa
:0401a400ce05000084
:020000040000fa
:0401a800ce05000080
:020000040000fa
:0401ac00ce0500007c
:020000040000fa
:0401b000ce05000078
:020000040000fa
:0401b400ce05000074
:020000040000fa
:0401b800ce05000070
:020000040000fa
:0401bc00ce0500006c
:020000040000fa
:0401c000ce05000068
:020000040000fa
:0401c400ce05000064
:020000040000fa
:0401c800ce05000060
:020000040000fa
:0401cc00ce0500005c
:020000040000fa
:0401d000ce05000058
:020000040000fa
:0401d400ce05000054
:020000040000fa
:0401d800ce05000050
:020000040000fa
:0401dc00ce0500004c
:020000040000fa
:0401e000ce05000048
:020000040000fa
:0401e400ce05000044
:020000040000fa
:0401e800ce05000040
:020000040000fa
:0401ec00ce0500003c
:020000040000fa
:0401f000ce05000038
:020000040000fa
:0401f400ce05000034
:020000040000fa
:0401f800ce05000030
:020000040000fa
:0401fc00ce0500002c
:020000040000fa
:04020000ce05000027
:020000040000fa
:04020400ce05000023
:020000040000fa
:04020800ce0500001f
:020000040000fa
:04020c00ce0500001b
:020000040000fa
:04021000ce05000017
:020000040000fa
:04021400ce05000013
:020000040000fa
:04021800ce0500000f
:020000040000fa
:04021c00ce0500000b
:020000040000fa
:04022000ce05000007
:020000040000fa
:04022400ce05000003
:020000040000fa
:04022800ce050000ff
:020000040000fa
:04022c00ce050000fb
:020000040000fa
:04023000ce050000f7
:020000040000fa
:04023400ce050000f3
:020000040000fa
:04023800ce050000ef
:020000040000fa
:04023c00ce050000eb
:020000040000fa
:04024000ce050000e7
:020000040000fa
:04024400ce050000e3
:020000040000fa
:04024800ce050000df
:020000040000fa
:04024c00ce050000db
:020000040000fa
:04025000ce050000d7
:020000040000fa
:04025400ce050000d3
:020000040000fa
:04025800ce050000cf
:020000040000fa
:04025c00ce050000cb
:020000040000fa
:04026000ce050000c7
:020000040000fa
:04026400ce050000c3
:020000040000fa
:04026800ce050000bf
:020000040000fa
:04026c00ce050000bb
:020000040000fa
:04027000ce050000b7
:020000040000fa
:04027400ce050000b3
:020000040000fa
:04027800ce050000af
:020000040000fa
:04027c00ce050000ab
:020000040000fa
:04028000ce050000a7
:020000040000fa
:04028400ce050000a3
:020000040000fa
:04028800ce0500009f
:020000040000fa
:04028c00ce0500009b
:020000040000fa
:04029000ce05000097
:020000040000fa
:04029400ce05000093
:020000040000fa
:04029800ce0500008f
:020000040000fa
:04029c00ce0500008b
:020000040000fa
:0402a000ce05000087
:020000040000fa
:0402a400ce05000083
:020000040000fa
:0402a800ce0500007f
:020000040000fa
:0402ac00ce0500007b
:020000040000fa
:0402b000ce05000077
:020000040000fa
:0402b400ce05000073
:020000040000fa
:0402b800ce0500006f
:020000040000fa
:0402bc00ce0500006b
:020000040000fa
:0402c000ce05000067
:020000040000fa
:0402c400ce05000063
:020000040000fa
:0402c800ce0500005f
:020000040000fa
:0402cc00ce0500005b
:020000040000fa
:0402d000ce05000057
:020000040000fa
:0402d400ce05000053
:020000040000fa
:0402d800ce0500004f
:020000040000fa
:0402dc00ce0500004b
:020000040000fa
:0402e000ce05000047
:020000040000fa
:0402e400ce05000043
:020000040000fa
:0402e800ce0500003f
:020000040000fa
:0402ec00ce0500003b
:020000040000fa
:0402f000ce05000037
:020000040000fa
:0402f400ce05000033
:020000040000fa
:0402f800ce0500002f
:020000040000fa
:0402fc00ce0500002b
:020000040000fa
:04030000ce05000026
:020000040000fa
:04030400ce05000022
:020000040000fa
:04030800ce0500001e
:020000040000fa
:04030c00ce0500001a
:020000040000fa
:04031000ce05000016
:020000040000fa
:04031400ce05000012
:020000040000fa
:04031800ce0500000e
:020000040000fa
:04031c00ce0500000a
:020000040000fa
:04032000ce05000006
:020000040000fa
:04032400ce05000002
:020000040000fa
:04032800ce050000fe
:020000040000fa
:04032c00ce050000fa
:020000040000fa
:04033000ce050000f6
:020000040000fa
:04033400ce050000f2
:020000040000fa
:10040000ef4b21000eff26000e01880000000000c7
:10041000000020000000e000020032000001200087
:100420002002880014000700290207000000e000f5
:1004300003003a008027230001002000020037005b
:100440000000200001002000810f70000100320038
:100450000f000700000020000000e0000200320052
:1004600000000200000000009a34020000000000ba
:100470000040da000000fe00200920000000e0003b
:1004800002003200002020009001880000000600d9
:10049000a1028800800478000000eb001f003700f4
:1004a000e284440054a0b4009905ba00e2844400f8
:1004b00054a0b4009906ba00e284440054a0b400e9
:1004c0000006eb00476fde00fd07b200ae018800ba
:1004d000636ce10003003a000ad801000000eb0061
:1004e0000e003700606ce10008003a00004deb00a0
:1004f0000a05e800020039003420ec000af0a000f0
:100500008b05e900f9ff3e00040037006168e10057
:10051000010032000086eb000b00070019c7ba008b
:100520001905ba000e04e00003003a000a00e000da
:10053000dbff3a0000000600fe07b200ae028800b2
:100540008a047800f5ff37000cd0a300e20f4d00bd
:100550001c003b0089027800354dba000a05e8000e
:10056000020039003420ec000af0a0008b05e900fd
:100570000f003200254dba000a05e80002003900dc
:100580003420ec000af0a0008b05e90008003200de
:100590000c00e0000600320015cdba000a05e800a4
:1005a000020039003420ec000af0a0008b05e900bd
:1005b0008984e80054a0b4000b00e000e2ff3a0098
:1005c000000006009902ba00055d78008b05e9007d
:1005d000f7ff3200c82ade00055d78008b05e900d0
:1005e000f3ff32000c00e000f1ff320019ddba0029
:1005f000eeff3700ac2f040000000000922804003a
:10060000000000008626040000000000a02704006f
:1006100000000000041c040000000000f81b04009f
:1006200000000000101c0400000000001c1c04005e
:1006300000000000281c040000000000341c04001e
:10064000000000004e1b040000000000621c0400bb
:1006500000000000901c040000000000ee1c0400dc
:10066000000000001c1d040000000000801d0400ac
:10067000000000000e1e0400000000008a1e04009e
:1006800000000000cc1e040000000000f21e040068
:1006900000000000181f0400000000003e1f0400be
:1006a00000000000641f040000000000921f04000e
:1006b00000000000c01f040000000000fa1f04003a
:1006c000000000002820040000000000cc200400ee
:1006d000000000001422040000000000702104004b
:1006e00000000000281b040000000000021b0400a2
:1006f00000000000fe230400000000002c24040081
:10070000000000005a240400000000007e230400c2
:1007100000000000a4230400000000006026040084
:10072000000000008824040000000000fe240400f3
:10073000000000007425040000000000ea25040009
:10074000000000008028040000000000da300400ef
:1007500000000000f0300400000000000831040038
:100760000000000010310400000000003c310400d3
:100770000000000078310400000000006231040035
:10078000000000008e31040000000000a4310400cd
:1007900000000000fc2e040000000000ea2c040011
:1007a00000000000c22b040000000000f02b040039
:1007b000000000001e2c0400000000002a2c040091
:1007c00000000000362c0400000000009c2b0400f8
:1007d00000000000602c040000000000aa2c0400af
:1007e00000000000c62c04000000000040160400b9
:1007f000000000000412040000000000601104006a
:10080000000000003600f800809fbe00829fbe00fe
:10081000849fbe00869fbe000200fa0010002000e8
:10082000000f7800a08080000000e000030032008c
:10083000a18080001e007800010001000868a90066
:100840000080fa004f03be004f02be004f01be0001
:100850004f00be003600f900004006003600f800e8
:10086000809fbe00829fbe00849fbe00869fbe0008
:100870000200fa0020002000000f7800a080800015
:100880000000e00003003200a18080001e0078001c
:10089000010001000888a9000080fa004f03be0093
:1008a0004f02be004f01be004f00be003600f900ef
:1008b000004006003600f800809fbe00829fbe0008
:1008c000849fbe00869fbe000200fa003000200018
:1008d000000f7800a08080000000e00003003200dc
:1008e000a18080001e0078000100010008a8a90076
:1008f0000080fa004f03be004f02be004f01be0051
:100900004f00be003600f900004006003600f80037
:10091000809fbe00829fbe00849fbe00869fbe0057
:100920000000fa00308080000000e0000200320089
:10093000308080000000010005a8a9000080fa00b6
:100940004f03be004f02be004f01be004f00be006d
:100950003600f900004006003600f800809fbe0017
:10096000829fbe00849fbe00869fbe000000fa00ea
:10097000c068a90020002000d81707000080fa00f6
:100980004f03be004f02be004f01be004f00be002d
:100990003600f900004006003600f800809fbe00d7
:1009a000829fbe00849fbe00869fbe000000fa00aa
:1009b000c608a90070002000c81707000080fa00d0
:1009c0004f03be004f02be004f01be004f00be00ed
:1009d0003600f900004006003600f800809fbe0097
:1009e000829fbe00849fbe00869fbe000000fa006a
:1009f00020468000700060000000e000030032002c
:100a0000c488a900a0002000b41707002146800078
:100a100000022000008060000000e00003003200bf
:100a2000c4a8a90090002000ac1707002146800050
:100a300000102000008060000000e0000300320091
:100a4000c508a900c0002000a417070021468000a7
:100a500000202000008060000000e0000300320061
:100a6000c528a900d00020009c1707002046800060
:100a7000610060000000e00003003200c408a9002b
:100a8000b000200095170700ffff37003600f80080
:100a9000809fbe00829fbe00849fbe00869fbe00d6
:100aa0000000fa00c028a9000000eb008b17070027
:100ab0000080fa004f03be004f02be004f01be008f
:100ac0004f00be003600f900004006003600f80076
:100ad000809fbe00829fbe00849fbe00869fbe0096
:100ae0000000fa00c088a900300020007b17070032
:100af0000080fa004f03be004f02be004f01be004f
:100b00004f00be003600f900004006003600f80035
:100b1000809fbe00829fbe00849fbe00869fbe0055
:100b20000000fa0074170700c048a9001000200058
:100b30006a1707000080fa004f03be004f02be0094
:100b40004f01be004f00be003600f9000040060015
:100b50003600f800809fbe00829fbe00849fbe00ca
:100b6000869fbe000000fa00c08080000000e00008
:100b700002003200c0808000000001000308a900cc
:100b80000080fa004f03be004f02be004f01be00be
:100b90004f00be003600f900004006000040da00b9
:100ba0000000fe000a00fa0011002000b1bf9f0003
:100bb000c0bf9f006a805700d60907004fb8970052
:100bc0000080fa00000006000a00fa00e20f500060
:100bd00034003e00e0a58000e10f50000300320029
:100be000e20f500011003a000c0037008323200070
:100bf0000300e00001003a000040da003802e200a1
:100c0000020035004022ef0039e2a80038a2ab0014
:100c10000d003a0038a2a8000b0037000326200080
:100c20000300e00001003a000040da006002e20048
:100c3000020035006822ef0061e2a80060a2ab006c
:100c400001003a0060a2a800820178000b00370082
:100c50003102fb00e10f500004003a003e82ab007d
:100c6000feff3a0044128800030037006682ab00a2
:100c7000feff3a00841388008301e9000300e000ce
:100c8000f3ff3a00e10f500003003a003ea2ab0030
:100c9000feff32000b00370066a2ab00feff320001
:100ca0000800370033002000b3bf9f00c0bf9f0083
:100cb000d1bf9f00e2bf9f006a80570097090700dd
:100cc0006fb99700020078000080fa00000006006b
:100cd00000000500140020008e033700f4ff2f00f1
:100ce0008c0337000001be00200007000470a7003d
:100cf00003f0a10003f8a30013003a006509b10056
:100d000010003200090035006928e10002003500ba
:100d1000010028000000050000004000818048001c
:100d20008502e900fcff3a0000000600f88f42004f
:100d3000050035008100d1000080d3008502e80065
:100d4000fcff3a00000006008000eb0000000500f8
:100d50004f89de0082017800890337006011b800f6
:100d600097033700040020006a033700c70ade003b
:100d7000f107b200f50fb20008003200e1cf4200e7
:100d8000020032000170a00024000500810f7000f5
:100d9000010032000408050044000500810f7000c6
:100da00002003a00140005008502e900000040003e
:100db00081c04800fcff3b000170a000240005003a
:100dc00007f82700078361000638e10004003a00b5
:100dd000f7072000878361008703710001003a0054
:100de00003f0a200889fbe008a9fbe008c9fbe00b9
:100df000470ade000480a100c71ade000580a100ba
:100e0000070028000785600087856100f70f200034
:100e10000720e1009e0032000728e1009c0032001c
:100e2000010678000400e000b4003200f70720005b
:100e3000878060000170a0000500e000c000320063
:100e4000f7072000878161000370a00005065200ab
:100e50000f003a000b50e1000b0032000308e100e4
:100e600002003a000200e1007e003200020450005d
:100e700083845800040031000001fd008101fd0061
:100e80008402fd008a05fd006044b800210037009f
:100e90000520e10005003d000001fd008101fd008d
:100ea0008402fd008a05fd00050652007a60e1001b
:100eb000050035000170a1004722dd00848070002c
:100ec0008a807000630037006044b800ef0266005b
:100ed00007ff2f00070666000500e000060034004b
:100ee000f08312008714dd000511de00071bdd0012
:100ef000060171008519de007060e1000500350013
:100f00000904780082047800030178008001eb0076
:100f1000700656000b50e10003003a00020040004a
:100f2000838048000400370060041400e0841c0043
:100f300002005800838058000188a3000600320098
:100f40008100d1000080d3008984d3000884d300bd
:100f50000402e800270037000178a30025003a00ca
:100f60000100e000030032008186cf006986560050
:100f70000a0037008c0020000000e00004003a0066
:100f800009007800880478000004eb007002520029
:100f90008086cf000d0646000c06e9007060e10077
:100fa0000600350080007800090078008804780089
:100fb0000004eb0070065600700252000c00e000c6
:100fc0000c0034008c08dd00f00316000703de007f
:100fd000868070000c00dd00074bde00060070000c
:100fe0008c4cdd000743de00868474000c44dd0079
:100ff0000c0252006120e100200035006101600018
:101000000700280087816400f7ff270087836400ba
:10101000070374000300e00006003200820373003f
:10102000040032000000e800e08048000188a300ce
:101030000e003a00f70f20000720e1004a003d00b3
:101040000170a1004722dd00810072008a807000db
:101050000000be004f06be004f05be004f04be009c
:10106000000006006000b800faff37008100d100e0
:101070000080d3000402e800eeff3700040178008e
:1010800089017400a10107008a807000f1ff370018
:10109000f7010700070278000001fd008101fd0053
:1010a000f301070087027800850372000778a30028
:1010b000040032000001fd008101fd00060207006e
:1010c000e4ff3700850362000768a30008003200d0
:1010d0000b50e10003003200f0ff2f00f1ff27006a
:1010e000dcff37000001fd008101fd00d9ff370062
:1010f0000468a300d7ff3200faff3700f8ff27008b
:10110000888360000b003a000000e00009003a000c
:101110008303640082837300020032000200be0079
:10112000ccff37000b50e100ceff3a000200be00ba
:10113000c8ff370014002000810064003eff370024
:10114000f8ff27008883610004003a000200e000f5
:1011500002003a008c007800beff37001500200026
:101160008301640039ff370001f8270000002000e8
:1011700081007500b7ff3700889fbe008a9fbe00c0
:101180008c9fbe001b0020000202be000586680086
:1011900006002800060666004709de00f20fb200ce
:1011a000820032000243e80080003200c729de00de
:1011b000f30fb2007d0032000343e8007b003200f1
:1011c000f107b2000170a000f507b2000570a000a1
:1011d000c708dd004903de00868070004700dd009f
:1011e000c72add004923de00868272004722dd0027
:1011f00003055100040350008583580003003100ab
:1012000000004000818048000a05e9008c1f78003a
:101210008a9fbe00040050008580580004024200ee
:1012200085824a0000004000818048000005eb00f4
:101230000004be006033b8000406be000d48e100a3
:1012400056003100050009004dccd8000c01b80053
:101250000d02b8008481410060824a0082835300fd
:1012600003045c0084845c0060055d000a00e0000b
:1012700025003a00800578000d40e100490031006a
:101280008800780007007800050009004d88d80024
:101290000c01b8000d02b8008481410060824a0050
:1012a0006003110083835b0004045c00e0845c0045
:1012b0000900e00021003a004f01be000300e000f9
:1012c0002b003200e3016000070673008c8171007f
:1012d00001003200640070004200de004e5edd005e
:1012e0000c007000c258de0001e0a000830107007e
:1012f000cf017800818071004f06be004f05be000f
:101300004f04be00000006008c8343000d044c0017
:10131000e0844c0060054d000000e9000a00e00098
:10132000d4ff32008c8343000d044c00e0844c0059
:1013300060054d000000e900ceff37000c034300bc
:101340008d834b0060044c00e0844c000000e900f9
:101350000900e000d8ff32000c0343008d834b00ee
:1013600060044c00e0844c000000e900d2ff37002c
:101370004200de004e5edd000c007000c258de0050
:1013800001e0a000cf0178000300e000daff3200a6
:1013900060001000e0801800d7ff3700f0ff2f003a
:1013a000aaff3700f0ff2f00b9ff37000404be008a
:1013b0002f010700870678000004fd008104fd006e
:1013c0002b010700078366000678a30003003200a4
:1013d0000960a7000800be002c0037000d78a300ac
:1013e000020032000800be00280037000778a30082
:1013f00026003a0001f0a10009f0a1000668a30050
:1014000003003200f1ff2700f0ff2f00baff370082
:101410000d68a300030032000800be008c8070003d
:10142000b5ff37000768a30007003a000648a3008d
:1014300003003200f1ff2700f0ff2f00aeff37005e
:101440000d48a300030032006000b8008c807000db
:10145000a9ff37000748a3000400320001f8270065
:10146000000020008c807000a3ff37007601070089
:101470000004fd008104fd000205780072010700f0
:101480000802be008a01780059ff37000160a00001
:1014900012022000d280880097ff37000100e00090
:1014a000120032000500e00010003200889fbe00ec
:1014b0008a9fbe008c9fbe000006eb0001f8a300cf
:1014c0000300320060001000e08018000cf0a00063
:1014d00005f8a3000300320060021200e0821a0047
:1014e0000cf0a2008005eb0041ff37006000b8005f
:1014f000020005000383680007002800070363005b
:10150000470ade000480a100c71ade000580a100a2
:10151000f70f20000720e100420032000728e10019
:1015200040003200889fbe008a9fbe008c1f78005a
:10153000f107b200f307b2000400e00064003200db
:101540000170a0000500e000680032000370a000f8
:1015500085054200eb07b1000204b8000302b800a1
:101560008484440060854a00020ab80084844400f0
:101570000a854a00030ab800040545000400330048
:101580000804d0008984d2000a85d2008b05e900c6
:101590006158e1003d0035000210200009016100a2
:1015a0000308200089816100f70720008783640019
:1015b00008867300c84cde00c853dd0087847400c1
:1015c0004855de000300e00006003200820376008a
:1015d000040032008904e80060054d000a88a30079
:1015e0000c003a00f70f20000758e10044003d00ce
:1015f0000a70a100c75ddd000a8575008a007300ce
:10160000090078004f0678004f05be004f04be0069
:10161000000006000a05d1008984d3008b05e8008c
:10162000f0ff3700881f780006047800900007005c
:10163000070278000001fd008101fd008c00070019
:1016400087027800850372000778a3000500320046
:101650000001fd008101fd009f0007004f0478009c
:1016600000000600850372000748a3000300320053
:10167000f0ff2f00f1ff2700f8ff370000002000e7
:1016800001f8270088807000f4ff37008801780097
:101690004848dd00808171004848de00c850dd0008
:1016a00001007000c850de00060478000b017800cd
:1016b0001600070088807000d2ff37000500e000a8
:1016c00005003200170020003a0007009dff370098
:1016d00081037000f9ff3a00860078004f06780019
:1016e0004f05be004f04be000000050083037100db
:1016f000f9ff3200270020002e00070094ff37007a
:1017000001f8270086807000f4ff37000100e00038
:1017100026003200610111007810e10023003c0036
:101720006022b8007010e1000400350080027800eb
:10173000010078008000eb00700151000200e00021
:101740000900340070031100062add00822ade0041
:101750008603dd00878272000200de00860bdd005a
:10176000070070008208de0084817100f4ff27000a
:101770000482620084817100040028008482620077
:101780006102600005f0a6000000060004827100fe
:10179000070032000000e800e0804800000006007a
:1017a0000002be006000b800efff37006000b80024
:1017b00000000600889fbe000004eb006138e100d5
:1017c00016003a000100e00008003a00c800de0000
:1017d0004800dd00880020000100e00003003a001e
:1017e000c800de004800dd00680444008184cf00aa
:1017f000e9845400060034008908dd00f0831400f9
:101800008703de00878070000900dd0009044400c2
:10181000610214004f04be00000006000300e00057
:1018200008003a00c811de004811dd0088002000e1
:101830000300e00003003a00c811de004811dd009b
:10184000680444008384cf00e98454000600340017
:101850008919dd00f08314008713de008781710091
:101860000911dd0009044400e1021400e9ff37001a
:101870002700200001f0a70017002000470bde0022
:10188000f60fb200040032000643e8000a003200fe
:101890004702b3000000060001037800f607b2001b
:1018a0000603700002003a000703b30000000600c0
:1018b0008702b3000000060001037800f607b200bb
:1018c00006037000020032000770a000000006004e
:1018d0000760a000000006000478a30004003200a6
:1018e0000578a300030032000168a30001003a005c
:1018f0000200be000160a00000000600810170002f
:10190000270032008002eb0001f8a3000300320040
:1019100060001000e080180015002000f40720008f
:101920000202420020003400f70320008703600019
:10193000060420000003630002082000000161008b
:101940004700de00c909dd0000807100c708de0025
:101950000600e00008003200870371000600320034
:101960001000b0000180b0000188a3000200320026
:10197000c108de000402e800f107b200f30f200006
:101980000320e10003003d004722dd0081007200da
:101990002900370001f827000000eb00260037007f
:1019a0006000b80000000600680212007f20e1001d
:1019b000020034006000b8001f0037006011b8005a
:1019c0007020e100040035008001780001007800fb
:1019d0008000eb00700252000400e00009003400b7
:1019e000f00312000719dd008419de000703dd0093
:1019f000868171000400de00070bdd000600700028
:101a00008408de00f7ff27008383630087037100eb
:101a10000600280003036300070032000700e0000f
:101a200003003a006101600002817300020032008d
:101a30001000b0000180b0000500a6000000060004
:101a400001f0a000000006004f0ade004709de009a
:101a5000f107b200f20fb2000b003200f207b10042
:101a60000170a000c708dd00c901de00838070009e
:101a70004700dd000400a600000006006000100022
:101a8000e080180000000600810f700001003a009d
:101a9000000006008182cf000500e00010003e003b
:101aa0008082cf00ee8242007028e10004003900fd
:101ab00007003e00800078000000eb000e003700b9
:101ac000708312008600de000500dd000a0037008a
:101ad000708352008600dd000000eb000600370036
:101ae000e28252008508dd00708312000603de00ea
:101af000868070000500dd007507b0000501ea0072
:101b00000400a6000000060060001000e08018003d
:101b100000000600889fbe008a9fbe00841f7800d8
:101b20007c0007004f00780011003300f0ff2f0009
:101b3000838f6c0006003b00040565000a00a700c7
:101b40000800370009f0a600100020000800370048
:101b5000820f5400838f5c000300390010002000c6
:101b600001003e000000200009f0a7000000ea008c
:101b70004f05be004f04be000000e000000006005c
:101b8000881f7800030478000300e00007003d0090
:101b900060001000e080180060011900e081190069
:101ba00002003b0001f02d00030037000400070095
:101bb00008f0a70001f0a0004f0478000000060024
:101bc000889fbe008a9fbe000082700004027100e0
:101bd00004827100260032000004be000200be0034
:101be0006011b8006b092000950220000182cf002f
:101bf0000a0039000541b1000082cf00070039001a
:101c00000541b1000982cf00040039000541b1004f
:101c10000882cf00010039000541b10005425200a1
:101c2000120032000a003b008281710061016400f1
:101c30008100d1000080d3008984d3000884d300c0
:101c40008b05e8000442e800f7ff3a000700370080
:101c50000804440089844c0000004800818048004a
:101c60008b05e9000442e900f9ff3a000300070090
:101c70004f05be004f04be0000000600810020009a
:101c8000618055000b003d000b00200061fe2f001d
:101c90000100e1001d0034008281710061016400d7
:101ca0008904d1000884d3000000e800faff3a005c
:101cb00071002000610064000300700002006000f9
:101cc0000900320061044400e0844c000988a5004a
:101cd000050032008b05e8006808e10002003a00c8
:101ce0008904d1000884d300f20f20000258e100db
:101cf00005003d00c75ddd00f907b2008980750071
:101d000008007800000006000bf827008b00780020
:101d1000000005000004be0014fc07000003be0024
:101d20000405be000200be0010fc0700844f7500d1
:101d3000000006000800fa00889fbe000004be00f4
:101d40000001be008300780001f0a10008007800c7
:101d5000a4fd200095f42300840f5000858f5800c7
:101d600018003e00f2ff2f00f3972300820f50006f
:101d7000838f580011003e00f2ff2f00f307200070
:101d8000820f5000838f580005003e0002002000a3
:101d9000033820000800be00d6fd0700040037000d
:101da0000200200003b827000800be000dfc070059
:101db000c0bf9f00d1bf9f00710037000800be0068
:101dc000680037004f49de0003002000143d250065
:101dd000b5072400840f5000858f58001f003e0077
:101de00034be2c0065012400840f5000858f5800fc
:101df0000e003e000200e00005003200b2fd2000af
:101e000093fc23000800be00f6fb070059003700d2
:101e1000b2fd200093fc23000800be00e8fb070091
:101e20005b0007000004be00550037000200e00020
:101e300005003200b2fd2000930424000800be001b
:101e4000e8fb070046003700b2fd200093042400a1
:101e50000800be00dafb070041003700541d2300d4
:101e6000250e2400840f5000858f58001d003e0071
:101e7000f4dd2e00f50a2400840f5000858f5800f1
:101e80000c003e000200e0000500320042be2c00c3
:101e9000630924000800be00d2fb0700e0ff370002
:101ea00042be2c00630924000800be00c4fb0700ea
:101eb000300037000200e00005003200b2fd2000d3
:101ec000930c24000800be00c6fb07002500370065
:101ed000b2fd2000930c24000800be00b8fb0700f0
:101ee00020003700f2ff2f00f3f72700820f500089
:101ef000838f5800040036000801be000800be00b1
:101f0000affb0700c7ff37006c8157000800be0019
:101f10004d0007006011b80063016000e10f51003f
:101f2000e08f590009003200e20f5100e08f5900a4
:101f300009003200e00f5100e08f59000b003a0019
:101f40002fb89700bfb89700060037002fb897004a
:101f5000bfb89700b2ff37002fb89700bfb89700ff
:101f600001f0a20091000700aeff37002fb89700e4
:101f7000bfb89700060007000004be0009f0a200e9
:101f80000800be004f04be000080fa0000000600fa
:101f9000889fbe008a9fbe008c9fbe000001be00cd
:101fa00054fd07000004be000001be0051fd070003
:101fb0000005be000200200003f02b000800be0058
:101fc0004cfd07000200200003f8230085fb0700fa
:101fd0000006be00f2a92a00a3d223000a00be0018
:101fe00044fd07000001be000c00be007dfb0700a1
:101ff0000006be000801be000a00be003dfd07004d
:102000000005be0072a12900c37c23000800be00a9
:1020100038fd0700f243200063ab230068fb070094
:102020000001be000a00be0032fd07000001be0034
:102030000c00be006bfb07004f06be004f05be0044
:102040004f04be00000006000800fa00889fbe0092
:102050008a9fbe008c9fbe000005be00020478006f
:102060000001be008300780001f0a1000a007800a2
:10207000a2fd200093dc2400820f5000838f5800c3
:102080001d003e0032982f0023f223000a00be00fc
:1020900018fd07000200200003b4240051fb0700d4
:1020a0000200200003b4240045fb07000006be0028
:1020b000e404070080047800a2fd200093fc2300c4
:1020c0000c00be000bfd07000001be000a00be00b0
:1020d0003bfb07000005be00325a2800832823007e
:1020e0000c00be0003fd07000001be000a00be0098
:1020f00033fb070026003700f2ff2f00f3f727001d
:10210000820f5000838f5800060036000a01be007f
:102110000a00be002afb0700008cbe008004eb0012
:102120001c0037000a00be00500007000005be007a
:1021300032982f0023f22300eefc0700020020005b
:1021400003f0230027fb0700950407000203be00ed
:102150000002be00e4b79f00f5b79f0086bf9f0056
:1021600097bf9f0086fe070032982f0023f22300be
:1021700001fc07000001be000a00be0010fb0700c2
:102180006000b8002004980031049800efb4970074
:10219000008cbe00090078004f06be004f05be004f
:1021a0004f04be000080fa0000000600889fbe00b9
:1021b0008a9fbe008c9fbe000005be000001be00cd
:1021c000ccfc07000004be000a01be00c9fc0700e9
:1021d0000006be004288280083c023000800be001d
:1021e000c4fc0700b2aa2a00a3e22300f4fa070005
:1021f0000001be000c00be00befc07000001be00d6
:102200000a00be00f7fa07000005be000801be0084
:102210000800be00b7fc07000001be000c00be00b5
:10222000b4fc07000006be00c2c32600636323009f
:102230000800be00affc0700f27c200003952300dd
:10224000dffa07000001be000c00be00a9fc070079
:102250000001be000a00be00e2fa07004f06be0001
:102260004f05be004f04be00000006006022b8000b
:102270006033b8000002be00f0ff2f00f1ff2f0016
:10228000f2ff2f00f3ff2700000062008180620050
:102290000201630083816300000006000000fa0071
:1022a00068815700cfb89700e0a080001000780048
:1022b000340007000080fa00000006000700370025
:1022c000000006002042210000000600fdff07007c
:1022d00000a18800f0a0880000000600ea874700ff
:1022e000889fbe008a9fbe008e1f78000004780081
:1022f000030078007287570084e2260055c7260045
:10230000049fbe00c3962200030f78006c8757001d
:10231000004feb0011059000a1049000910578009a
:102320000200e000020032000207780001003700de
:10233000728757000000e00002003a000e007800ab
:102340001c0307000a00e000030035008a0f50005c
:10235000010036000a0078000b027800890178003d
:10236000000178008e007800080078004300070024
:102370004f0778004f05be004f04be00af00b1000c
:10238000000006000200fa00881f780000047800b0
:10239000e2bf9f006481570008007800f901070040
:1023a000980090000148a300010032000080eb007b
:1023b0004f0478000080fa0000000600889fbe00ed
:1023c000000478004800900082047800808f540058
:1023d0000100360080047800090178005800900060
:1023e000890207005800900009004000500498003e
:1023f000c800900089845000490498000048eb0010
:102400004f04be000000060010007800eef937000f
:10241000900190000388a30001003200e7ff37001d
:102420000348a30001003a00f7ff07000000060080
:10243000889fbe0000047800480090008204780065
:10244000808f540001003600800478000901780074
:10245000580090006c0207005800900009004000ee
:1024600050049800c80090008984500049049800e6
:102470000048eb004f04be0000000600f287470052
:10248000889fbe008a9fbe008c9fbe008e1f780072
:102490008004780001057800020478008305780044
:1024a0006107620002003a008b0f540008003900f7
:1024b000080178008a00780009007800d4ff07003e
:1024c0008b0f540002003900880578001e00370089
:1024d000088655000c017800f00f56000100360008
:1024e00002012000010220007e8057004d020700fb
:1024f0008c0678000500370002012000fe8057009e
:1025000009007800c2ff0700f0865600ef8f5600e2
:10251000f9ff3e004461de0000ff2f008091b9000a
:102520000c014100fe80570009007800b8ff070049
:102530000e00e00004003a00080178008a007800ec
:1025400009007800b2ff07000b0078004f07780001
:102550004f06be004f05be004f04be002f01b10064
:102560000000060000000500000005000000050056
:10257000000178000040eb008080fb00818040007b
:10258000434a210081814100134278000404e000a5
:1025900004003a00504a21008100400011407800b8
:1025a0000000060092017800934f520005003a00a7
:1025b000504a210081004000114078000309e800e2
:1025c000010037000040e800ea4f5000eaff360003
:1025d00000000600f6874700889fbe008a9fbe0065
:1025e0008c9fbe008e1f78000005780001047800e3
:1025f00083057800040678000000eb00c0b79f0058
:102600008080eb00d1b79f00e0b79f00f2b79f003a
:102610000008200080bf9f0098007800010078002b
:102620008004eb00010037008904e80030417800a5
:102630000204e0000300320053c2b300834f510094
:10264000f9ff3a000900e0000400320009017800b7
:102650000a0078006eff0700188c44001807780005
:1026600050c2b3009e4f10003f013a000e07e80031
:102670000e0c780010003700cfb097000100a000ca
:102680000b003700cfb097000110a0000800370002
:10269000cfb097000120a00005003700cfb0970011
:1026a0000130a00002003700cfb097000140a00029
:1026b000c1b79f00000ce800180078009040780037
:1026c000b2c2b30082cf5000f1ff320007003c00dd
:1026d00002c2b30082cf5000f0ff320032c2b3001a
:1026e00082cf500007003a00efff3700d2c2b3009c
:1026f00082cf5000e0ff320002c3b30082cf50000f
:10270000e0ff3200a2c2b30082cf50000d003a00b9
:10271000000ce8001c80e900000e78001000780032
:10272000e0b79f000000e0000f003d00cfb0970031
:102730000100a200c1b79f000000ea00e0b79f00bf
:102740000900370084010700e0b79f00010037004f
:10275000000ce800180078009000fb000103b100b5
:10276000e98f5000faff36004fb097000008a30031
:10277000020032000010a100c0b79f0018007800ce
:10278000e1c2b30090cf100016003a008000eb00c9
:10279000d1b79f000000e800000c7800a1c2b30090
:1027a00090cf100006003a00000ce8001c80e90001
:1027b000000e780010007800d0b79f0009003700a5
:1027c00065010700d0b79f0001003700000ce8004a
:1027d000180078009000fb000103b100e98f500061
:1027e000faff36000800780061ff07008046780095
:1027f000180078001000fb0010020700910620006e
:10280000810f50003800320012003c0041062000c9
:10281000810f5000340032000a003c0011062000f5
:10282000810f50002000320031062000810f50003f
:10283000a000320051022000810f5000bc003a007d
:10284000b400370071062000810f5000b8003c0032
:102850008800370001072000810f50005c00320023
:1028600007003c00e1062000810f50007a00320092
:10287000f1062000810f5000ad003a00390037000a
:1028800051072000810f50002700320081072000ef
:10289000810f50004200320031072000810f5000ac
:1028a000a3003a008f0037008d80fb000c017800f8
:1028b00000fe2f000f004000eb0107000000e000c9
:1028c000a800320018007800000ce8009041780061
:1028d00002fe2f000f014100f88057000a00780027
:1028e00021ff07000e0037008d80fb008c0178006f
:1028f0001200200000fe2f000f004000f901070029
:102900000000e00097003200180ce80002fe2f00e3
:102910000f014100f88057000a00780011ff0700fe
:1029200080844400900037008d80fb008c0178008b
:102930000001eb0000fe2f000f004000e90107003e
:102940000000e00087003200180ce80002fe2f00b3
:102950000f014100f88057000a00780001ff0700ce
:10296000efff37008d80fb008c0178000001eb0049
:1029700000fe2f000f004000da0107000000e00019
:1029800078003200180ce80002fe2f000f01410011
:10299000f88057000a007800f2fe0700e0ff3700d9
:1029a0008d80fb008c0178000001eb0000fe2f0001
:1029b0000f004000cb0107000000e000690032007a
:1029c00018007800000ce800904178001c003700e7
:1029d0008c0178000001eb00010f200000fe2f00a9
:1029e0000f004000bf0107000000e0005d00320062
:1029f000180ce8000fb097009fb097002fb1970018
:102a0000bfb19700e00f5000e08f5800e00f590071
:102a1000e08f590009003a00cfb597006fb49700d6
:102a2000c0492100630107000b027800880178008b
:102a300000017800c14921004700370083c7b30077
:102a400002fe2f000f014100f88057000a007800b5
:102a5000c5fe0700b2ff37000b8144008d80fb00ec
:102a60008c01780000fe2f000f004000f1010700ec
:102a70003c0037008d80fb000c01780000fe2f0029
:102a80000f004000780107000000e0003500320030
:102a900018007800000ce8009041780002fe2f003a
:102aa0000f014100f88057000a007800aefe0700d1
:102ab0009bff370000c8b30080cf560029003a00c2
:102ac000180ce8001c80e900000e78001040780027
:102ad000e0df9f0013002000e2fd2f000f01410006
:102ae0000800370000c8b30080cf56001d003a0030
:102af000180ce8001c80e900000e78008001eb0053
:102b000010017800f88057000a007800f3fd0700f4
:102b100083ff370000c8b30080cf560011003a0091
:102b2000180ce8004fb29700efb19700080037008b
:102b30000e0c78000000eb00c0b79f00e0b79f00cc
:102b40000080eb00d0b79f000002eb00840178000a
:102b500012002000214a21000a00780047fe0700e9
:102b60006fff3700180ce800090078004f07780065
:102b70004f06be004f05be004f04be006f01b100fe
:102b8000000006008200fa00889fbe008a1f7800bd
:102b90000005780082047800c13f9f000004eb002c
:102ba000100037000902780088017800a2f72f0092
:102bb0000f01410081f72f008f8040000a0078004c
:102bc00084fe070008004000880f500004003d000c
:102bd000b0042000d0a588000084eb00040037007a
:102be000000478004f3897001004e000edff3a0031
:102bf000080078004f0578004f04be000080fa00fe
:102c000000000600889fbe000004be000000eb002c
:102c10000800e00018003200180090000058a300df
:102c20000d003200d800900068009000808f5000a6
:102c300009003600b80990000001eb00820078001e
:102c40000800780003000100d80090000080eb002d
:102c50000100e000080032000000eb00200c9800aa
:102c600060049800500498000900e000020032005f
:102c700018007800cbf707004f04be0000000600e4
:102c8000889fbe000004be000000eb000800e000ca
:102c900025003200180090000058a30011003200f7
:102ca000d800900068009000808f50000900360026
:102cb000b80990000001eb0082007800080078005d
:102cc00003000100d80090000080eb000100e0004c
:102cd000150032000000eb00200c98006004980002
:102ce00050049800780a900008109000800f52005d
:102cf000060031000002520011002000cfa2de00c9
:102d0000612bb90018007800390007000000eb00c3
:102d100000149800700c98000900e00002003200d6
:102d2000180078009ff707004f04be00000006005f
:102d3000800078001000200002022000828f5000e6
:102d400004003200e9805000e48f5000010036009a
:102d50000000eb0000000600889fbe008a1f78007c
:102d6000000578000a047800984478000805e80017
:102d70000900fb00eeff07000000e000f9ff3a0049
:102d8000b0c2b30080cf540005003200d0c2b300ff
:102d90008000eb0080cf540005003a0002003700ad
:102da0008000eb0001003700110020000804e8005b
:102db0000000eb0003003700ea00b90002005000f9
:102dc0000003b0003801fb0003fd2f0082814100a9
:102dd000e98f5100f8ff36000100e00001003a00e1
:102de0000000ea004f0578004f04be000000060016
:102df000a0fd2f00f1ff2f00860007004f89de00a5
:102e0000820178000000060080017800020037008f
:102e1000b15978000201e9000200e000fcff3a002d
:102e200000000600889fbe008a9fbe0080047800d4
:102e30000200e0005b00320001407800814c780025
:102e400082814400f1f99f00e20f510055003600e5
:102e500091449800a1449800e1f99f00d1f99f00a6
:102e6000e60f51004f003600b1449800c1f99f00b1
:102e7000e80f51004b0036000905ea0063056500c4
:102e80000a8444000a055100c1ff2f0001056500b6
:102e90000080fb008000eb001210200013102000c7
:102ea00089010700008cbe000a01440060b99f0040
:102eb00071b99f00e80f55003a00360020049800d1
:102ec00031049800400498005104980020b99f00f4
:102ed00031b99f0040b99f0051b99f00f80f5500cc
:102ee000300036006004980071049800000c9800cf
:102ef000110c9800200c9800310c9800400c9800a0
:102f0000510c980020b19f0031b19f0040b19f004b
:102f100051b19f0060b19f0071b19f0000b99f0047
:102f200011b99f006401640078014100020444006b
:102f3000020555006011b8000203be000002be0089
:102f40000403be006022b80000007200818072009d
:102f5000020173008381730010003700009cbe00e3
:102f60000294be0040049800510498006204980046
:102f700073049800000c9800110c9800220c980023
:102f8000330c9800400c9800510c9800620c98008b
:102f9000730c98000a02b1000802b000ff0f550040
:102fa000eeff3e00090078004f05be004f04be0052
:102fb0000000060080007800040037003104e000c3
:102fc00002003a00000051000000060001017800f4
:102fd0000108a300f9ff3a0081017800310178006f
:102fe000f4ef2f00020242000281ea0002016200b7
:102ff0000408280004016100f7ff32008300780014
:10300000010178003104e000fdff3a0000005100aa
:103010000000060002002f00f3ff2f00820f500077
:10302000838f5800040036000000ea00d0a5880015
:103030000080eb008080eb0000000600f1fb2f0019
:1030400080804000f98f500001003e000050a00039
:1030500000000600f9ff3700000006009bfc070097
:10306000fdff0700fcff3700881f78000004780090
:1030700000082000808f5000170035001008200045
:10308000808f50000b00340030082000808f5000eb
:1030900011003a0092007800688050000009780022
:1030a0003002be002003be00049cbe000694be0099
:1030b000070037009202780064805200000978000f
:1030c0001000be0097000700009cbe000294be00e6
:1030d00010002000010037000000eb004f047800d2
:1030e0000000060084082000848f50001d0032007c
:1030f0000d003c0014082000848f5000270032008f
:1031000002003c00040820000400370024082000ce
:10311000848f50003400320044082000848f500017
:1031200043003a0036003700040a2000848f500024
:103130002700320004003c0004092000848f500066
:103140003b003a0028003700020c2000828f50001c
:103150002f003200020f2000828f500034003a000e
:103160002b0037009380e9000200e00005003200e8
:10317000810978001102fb00cfa2de00612bb900ab
:103180002800370081097800114278000482fb0092
:103190008002eb006033b800220037001302780091
:1031a000e40052000200e0000500320081097800ce
:1031b0001102be004fabde00860378001900370015
:1031c000810978001102be006033b8001500370095
:1031d0009380e9008109780011027800cfa2de0017
:1031e000612bb9000f00370093027800e88052008d
:1031f000810978003102be002103be0009003700ba
:103200009380e9000200e00002003200f1ff370085
:103210009380e90081097800110278008002eb00b8
:103220006033b8000498be000690be001000050090
:103230000000050044082000848f50002500320063
:1032400008003c0014082000848f50001400320055
:1032500024082000848f500024003200040820003d
:103260000c00370004092000848f50001f0032003a
:1032700004003c0084082000848f500024003a00a1
:103280000e003700040a2000848f50001100320025
:10329000040c2000848f50001d003a000d00370000
:1032a0009380e90081097800910078000108780096
:1032b000cf91de008288be00140037009380e900c1
:1032c0008109780091007800010878008248780030
:1032d0000e0037009380e9008109780091007800a2
:1032e0000108780082087800080037009380e90020
:1032f0008109780091007800010878006112b90016
:10330000612bb9008498be008690be0010000500b5
:103310000000050000c0da000000060000c0da006e
:10332000000006008103780090f607000001be004f
:103330006000b8000478a30013003a006220e100a6
:1033400015003e000d0039008301d1000281d30039
:103350008180d3008301d1000281d3008180d3001a
:103360008301d1000281d3008180d3000538b000f1
:10337000c42add00f300b2008381720007f0a700c9
:1033800003f0a0000000060083ff270002002000d9
:103390006110b900f9ff370003ff2700f7ff37007e
:1033a0000003be0071f607006011b8000470a700aa
:1033b00007f0a1006509b1001b00320012003500c2
:1033c000860220000628e10008003500f3ff2700f0
:1033d000f2ff2f006110b9000700e00018003b0069
:1033e000030028006000b800020005000000400053
:1033f0008180480002014900838149008502e9007b
:10340000faff3a0008003700f88f420002003c0043
:103410008000eb00000005008100d1000080d30097
:103420008502e800fcff3a000700e00004003b00d2
:1034300060001000e080180060011900e0811900b0
:10344000000006000001be0048f607000470a70057
:1034500003f0a1006509b100160032000d0035002f
:103460006828e10006003500f0ff2f00f1ff27007b
:103470000300e00013003b000100280000000500ed
:1034800000004000818048008502e900fcff3a000e
:1034900008003700f88f420002003c008000eb007b
:1034a000000005008100d1000080d3008502e80003
:1034b000fcff3a000300e00002003b006000100047
:1034c000e080180000000600020ab900001bb900e5
:1034d0000200b800810042008100430000000600a5
:020000040000fa
:1034e00086260000a0270000041c0000f81b000036
:1034f000101c00001c1c0000281c0000341c0000d4
:103500004e1b0000621c0000901c0000ee1c00001e
:103510001c1d0000801d00000e1e00008a1e000001
:10352000cc1e0000f21e0000181f00003e1f00000d
:10353000641f0000921f0000c01f0000fa1f00005f
:1035400028200000cc200000142200007021000080
:10355000000000000000000000000000000000006b
:103560000000000000000000281b0000021b0000fb
:10357000fe2300002c2400005a2400007e230000bb
:10358000a42300006026000088240000fe24000020
:1035900074250000ea2500008028000000000000db
:1035a0000000000000000000da300000f0300000f1
:1035b00008310000103100003c310000783100007b
:1035c000623100008e310000a43100008100000053
:1035d000c22b0000f02b00001e2c00002a2c000043
:1035e000362c00009c2b0000602c0000aa2c000050
:1035f000c62c000000000000546500007374000039
:0436000000000000c6
:020000040000fa
:103604000200fa00000f78001e007800e20f50005c
:1036140006003200e30f500006003200e10f5000b4
:1036240007003a002be3a8000600370061e3a80076
:103634000400370097e3a8000000000001003700f1
:10364400000000000080fa00000006000200fa00fa
:10365400000f78001e007800e20f500006003200d0
:10366400e30f500006003200e10f500007003a005b
:103674002be3a9000600370061e3a900040037002a
:1036840097e3a900000000000100370000000000db
:103694000080fa00000006000400fa00000f780021
:1036a400110798001e007800e20f50001c00320041
:1036b400e30f500032003200e10f500048003a009e
:1036c4001e00900000407800674060000080fb000e
:1036d400670060005219800081ff2f0081006100a3
:1036e40001007000501988001e009000e20f500085
:1036f40006003a0091198000f0fc2f000080600061
:103704000040a0009019880036003700911980000d
:10371400f0fc2f0000806000901988003100370011
:103724001e00900000407800674060000080fb00ad
:1037340067006000021b800081ff2f008100610090
:1037440001007000001b88001e009000e20f500072
:1037540006003a00411b8000f0fc2f00008060004e
:103764000040a000401b88001e003700411b800061
:10377400f0fc2f0000806000401b88001900370017
:103784001e00900000407800674060000080fb004d
:1037940067006000b21c800081ff2f00810061007f
:1037a40001007000b01c88001e009000e20f500061
:1037b40006003a00f11c8000f0fc2f00008060003d
:1037c4000040a000f01c880006003700f11c8000b7
:1037d400f0fc2f0000806000f01c8800010037001e
:1037e400000000000080fa00000006000000fa005b
:1037f4002be3a80061e3a80097e3a8000080fa0087
:10380400000006000000fa002be3a90061e3a90010
:1038140097e3a9000080fa00000006000200fa0005
:10382400000f78009e007800511888000080fa008c
:10383400000006000200fa00000f78009e007800e5
:10384400411888000080fa00000006000200fa0017
:10385400000f78009e007800311888000080fa007c
:10386400000006000400fa00000f78001107980019
:103874001e007800e20f500007003200e30f5000f2
:1038840008003200e10f50000a003a009e00900048
:10389400911a8800080037009e009000411c88009f
:1038a400050037009e009000f11d88000000000014
:1038b40001003700000000000080fa00000006004c
:1038c4000400fa00000f7800110798001e00780029
:1038d400e20f500007003200e30f500008003200ee
:1038e400e10f50000a003a009e009000711a88000f
:1038f400080037009e009000211c88000500370056
:103904009e009000d11d88000000000001003700d7
:10391400000000000080fa00000006000400fa0025
:10392400000f7800110798001e007800e20f500085
:103934000f003200e30f500018003200e10f500076
:1039440022003a001e0090000040780061406000b0
:103954000080fb00610060004d00dd006119800003
:1039640001d0a10001007000601988001800370020
:103974001e00900000407800614060000080fb0061
:10398400610060004d00dd00111b800001d0a1002a
:1039940001007000101b88000d0037001e0090000d
:1039a40000407800614060000080fb00610060001e
:1039b4004d00dd00c11c800001d0a1000100700099
:1039c400c01c880000000000010037000000000057
:1039d4000080fa00000006000400fa00000f7800de
:1039e400110798001e007800e20f50000700320013
:1039f400e30f500008003200e10f50000a003a00c3
:103a04009e009000611a8800080037009e00900014
:103a1400111c8800050037009e009000c11d88001d
:103a24000000000001003700000000000080fa00e0
:103a3400000006000400fa00000f78001107980047
:103a44001e007800e20f500010003200e30f500017
:103a54001a003200e10f500025003a001e009000c9
:103a640000407800634060000080fb006300600059
:103a74004a00dd0082198000f13f2f0081006100bf
:103a840001007000801988001a0037001e009000a1
:103a940000407800634060000080fb006300600029
:103aa4004a00dd00321b8000f13f2f0081006100dd
:103ab40001007000301b88000e0037001e009000cb
:103ac40000407800634060000080fb0063006000f9
:103ad4004a00dd00e21c8000f13f2f0081006100fc
:103ae40001007000e01c88000000000001003700a5
:103af400000000000080fa00000006000400fa0044
:103b0400000f7800214798001e007800e20f500053
:103b140017003200e30f500028003200e10f50007c
:103b24003a003a0080198000ba800a0000000000c0
:103b3400e14060002e4090000080fb000000400047
:103b44000040780000c07000634060000080fb000b
:103b5400630060004a00dd0082198000f13f2f00fd
:103b6400810061000100700080198800280037007e
:103b7400301b8000ba800a0000000000e1406000b1
:103b84002e4090000080fb000000400000407800c0
:103b940000c07000634060000080fb0063006000b0
:103ba4004a00dd00321b8000f13f2f0081006100dc
:103bb40001007000301b880015003700e01c8000f5
:103bc400ba800a0000000000e14060002e4090002e
:103bd4000080fb00000040000040780000c070003e
:103be400634060000080fb00630060004a00dd0069
:103bf400e21c8000f13f2f00810061000100700091
:103c0400e01c8800000000000100370000000000f4
:103c14000080fa00000006000400fa00000f78009b
:103c2400214798001e007800e20f50001400320073
:103c3400e30f500022003200e10f500031003a003f
:103c440080198000ba800a0000000000e240600091
:103c54002e40900000c07000634060000080fb00b4
:103c6400630060004a00dd0082198000f13f2f00ec
:103c74008100610001007000801988002200370073
:103c8400301b8000ba800a0000000000e24060009f
:103c94002e40900000c07000634060000080fb0074
:103ca400630060004a00dd00321b8000f13f2f00fa
:103cb4008100610001007000301b88001200370091
:103cc400e01c8000ba800a0000000000e2406000ae
:103cd4002e40900000c07000634060000080fb0034
:103ce400630060004a00dd00e21c8000f13f2f0009
:103cf4008100610001007000e01c880000000000e9
:103d040001003700000000000080fa0000000600f7
:103d14000400fa00100798000000eb00000f780080
:103d24001e009000e20f50000a003200e30f500022
:103d34000e003200e10f500012003a00801980009a
:103d4400ba800a00000000000080fb00000f780029
:103d54000d003700301b8000ba800a00000000000c
:103d64000080fb00000f780007003700e01c800093
:103d7400ba800a00000000000080fb00000f7800f9
:103d840001003700000000001e0078000080fa00e7
:103d9400000006000200fa00000f78001e00780000
:103da400e20f500006003200e30f5000060032001c
:103db400e10f500007003a0031a3a80006003700c5
:103dc40067a3a800040037009da3a800000000001a
:103dd40001003700000000000080fa000000060027
:103de4000200fa00000f78001e007800e20f500075
:103df40006003200e30f500006003200e10f5000cd
:103e040007003a003183a800060037006783a80042
:103e1400040037009d83a800000000000100370063
:103e2400000000000080fa00000006000200fa0012
:103e3400000f78001e007800e20f500006003200e8
:103e4400e30f500006003200e10f500007003a0073
:103e540031a3a9000600370067a3a90004003700b6
:103e64009da3a9000000000001003700000000002d
:103e74000080fa00000006000200fa00000f78003b
:103e84001e007800e20f500006003200e30f5000dd
:103e940006003200e10f500007003a003183a90008
:103ea400060037006783a900040037009d83a9003a
:103eb4000000000001003700000000000080fa004c
:103ec400000006000400fa00000f780011079800b3
:103ed4001e007800e20f500007003200e30f50008c
:103ee40008003200e10f50000a003a009e009000e2
:103ef400d11a8800080037009e009000811c8800b9
:103f0400050037009e009000311e8800000000006c
:103f140001003700000000000080fa0000000600e5
:103f24000400fa00000f7800110798001e007800c2
:103f3400e20f500007003200e30f50000800320087
:103f4400e10f50000a003a009e009000e11a880038
:103f5400080037009e009000911c8800050037007f
:103f64009e009000411e8800000000000100370000
:103f7400000000000080fa00000006000400fa00bf
:103f8400000f7800110798001e007800e20f50001f
:103f940009003200e30f50000c003200e10f500022
:103fa40010003a009e009000d11a88009e009000f4
:103fb400e11a88000c0037009e009000811c8800e4
:103fc4009e009000911c8800070037009e0090001e
:103fd400311e88009e009000411e880000000000f1
:103fe40001003700000000000080fa000000060015
:103ff4000400fa00000f7800110798001e007800f2
:10400400e20f500007003200e30f500008003200b6
:10401400e10f50000a003a009e009000a11a8800a7
:10402400080037009e009000511c880005003700ee
:104034009e009000011e880000000000010037006f
:10404400000000000080fa00000006000400fa00ee
:10405400000f7800110798001e007800e20f50004e
:104064001b003200e30f500030003200e10f50001b
:1040740045003a001e009000e20f50000c00320090
:10408400e20f500003003e00e10f50000600320032
:104094000d003700e30f500007003200e40f50001a
:1040a400070032000800370037e3a8000700370094
:1040b40037c3a8000500370037a3a8000300370062
:1040c4003783a80001003700000000002f003700ec
:1040d4001e009000e20f50000c003200e20f50006e
:1040e40003003e00e10f5000060032000d003700cf
:1040f400e30f500007003200e40f500007003200c5
:10410400080037006de3a800070037006dc3a8005e
:10411400050037006da3a800030037006d83a800d5
:104124000100370000000000180037001e00900056
:10413400e20f50000c003200e20f500003003e007a
:10414400e10f5000060032000d003700e30f50006d
:1041540007003200e40f5000070032000800370067
:10416400a3e3a80006003700a3c3a8000400370097
:10417400a3a3a80002003700a383a8000000000046
:104184000000000001003700000000000080fa0079
:10419400000006000400fa00000f780011079800e0
:1041a4001e007800e20f50001b003200e30f5000a5
:1041b40030003200e10f500045003a001e0090002c
:1041c400e20f50000c003200e20f500003003e00ea
:1041d400e10f5000060032000d003700e30f5000dd
:1041e40007003200e40f50000700320008003700d7
:1041f40037e3a9000700370037c3a90005003700db
:1042040037a3a900030037003783a9000100370052
:10421400000000002f0037001e009000e20f500045
:104224000c003200e20f500003003e00e10f50008a
:10423400060032000d003700e30f50000700320083
:10424400e40f500007003200080037006de3a900b6
:10425400070037006dc3a900050037006da3a9004e
:10426400030037006d83a90001003700000000003f
:10427400180037001e009000e20f50000c003200be
:10428400e20f500003003e00e10f50000600320030
:104294000d003700e30f500007003200e40f500018
:1042a4000700320008003700a3e3a9000600370026
:1042b400a3c3a90004003700a3a3a9000200370088
:1042c400a383a900000000000000000001003700e3
:1042d400000000000080fa00000006000400fa005c
:1042e400000f7800110798001e007800e20f5000bc
:1042f4001b003200e30f500030003200e10f500089
:1043040045003a001e009000e20f50000c003200fd
:10431400e20f500003003e00e10f5000060032009f
:104324000d003700e30f500007003200e40f500087
:1043340007003200080037002fc3a9000700370028
:104344002fa3a900050037002f83a900030037001d
:104354002fe3a90001003700000000002f00370000
:104364001e009000e20f50000c003200e20f5000db
:1043740003003e00e10f5000060032000d0037003c
:10438400e30f500007003200e40f50000700320032
:104394000800370065c3a9000700370065a3a9001a
:1043a400050037006583a9000300370065e3a90011
:1043b4000100370000000000180037001e009000c4
:1043c400e20f50000c003200e20f500003003e00e8
:1043d400e10f5000060032000d003700e30f5000db
:1043e40007003200e40f50000700320008003700d5
:1043f4009bc3a900060037009ba3a9000400370053
:104404009b83a900020037009be3a9000000000081
:104414000000000001003700000000000080fa00e6
:10442400000006000600fa00100798002107980013
:104434000040eb00004f78001e009000e20f500097
:104444003b003200e30f500070003200e10f5000d7
:10445400a5003a002e009000e20f50001400320034
:10446400e20f500003003e00e10f5000060032004e
:104474002d003700e30f500017003200e40f500006
:104484001f0032002800370070198000ee800a00f7
:10449400000000000080fb0000f0a7000000ea001c
:1044a4000000ea004f00de00004f78001f003700d4
:1044b40070198000dd800a00000000000080fb000d
:1044c40000f0a7000000ea000000ea004f00de0050
:1044d400004f78001500370070198000cc800a0066
:1044e400000000000080fb0000f0a7000000ea00cc
:1044f4000000ea004f00de00004f78000b00370098
:1045040070198000ff800a00000000000080fb009a
:1045140000f0a7000000ea000000ea004f00de00ff
:10452400004f780001003700000000006f003700e2
:104534002e009000e20f500014003200e20f5000f1
:1045440003003e00e10f5000060032002d0037004a
:10455400e30f500017003200e40f50001f00320038
:1045640028003700201b8000ee800a0000000000b5
:104574000080fb0000f0a7000000ea000000ea0051
:104584004f00de00004f78001f003700201b800022
:10459400dd800a00000000000080fb0000f0a7009e
:1045a4000000ea000000ea004f00de00004f78003f
:1045b40015003700201b8000cc800a00000000009a
:1045c4000080fb0000f0a7000000ea000000ea0001
:1045d4004f00de00004f78000b003700201b8000e6
:1045e400ff800a00000000000080fb0000f0a7002c
:1045f4000000ea000000ea004f00de00004f7800ef
:104604000100370000000000380037002e00900041
:10461400e20f500014003200e20f500003003e008d
:10462400e10f5000060032002d003700e30f500068
:1046340017003200e40f50001f003200280037003a
:10464400d01c8000ee800a00000000000080fb0007
:1046540000f0a7000000ea000000ea004f00de00be
:10466400004f78001f003700d01c8000dd800a0056
:10467400000000000080fb0000f0a7000000ea003a
:104684000000ea004f00de00004f780015003700fc
:10469400d01c8000cc800a00000000000080fb00d9
:1046a40000f0a7000000ea000000ea004f00de006e
:1046b400004f78000b003700d01c8000ff800a00f8
:1046c400000000000080fb0000f0a7000000ea00ea
:1046d4000000ea004f00de00004f780001003700c0
:1046e4000000000001003700000000001e407800b8
:1046f4000080fa00000006000200fa00000f7800b3
:104704001e007800e20f500006003200e30f500054
:1047140006003200e10f500007003a002e63a800a3
:10472400060037006463a800040037009a63a800f9
:104734000000000001003700000000000080fa00c3
:10474400000006000400fa00100798000040eb0087
:10475400004f78001e009000e20f50000e0032005f
:10476400e30f500016003200e10f50001e003a0023
:104774007019800044800a00000000000080fb00e3
:1047840000f0a7000000ea000000ea004f00de008d
:10479400004f780015003700201b800044800a0079
:1047a400000000000080fb0000f0a7000000ea0009
:1047b4000000ea004f00de00004f78000b003700d5
:1047c400d01c800044800a00000000000080fb0030
:1047d40000f0a7000000ea000000ea004f00de003d
:1047e400004f780001003700000000001e407800f0
:1047f4000080fa00000006000400fa00000f7800b0
:10480400110798001e007800e20f500007003200e4
:10481400e30f500008003200e10f50000a003a0094
:104824009e009000a11a8800080037009e009000a6
:10483400511c8800050037009e009000011e88006e
:104844000000000001003700000000000080fa00b2
:10485400000006000400fa00000f78001107980019
:104864001e007800e20f500007003200e30f5000f2
:1048740008003200e10f50000a003a009e00900048
:10488400b11a8800080037009e009000611c88005f
:10489400050037009e009000111e880000000000f3
:1048a40001003700000000000080fa00000006004c
:1048b4000400fa00000f7800110798001e00780029
:1048c400e20f500007003200e30f500008003200ee
:1048d400e10f50000a003a009e009000c11a8800bf
:1048e400080037009e009000711c88000500370006
:1048f4009e009000211e8800000000000100370087
:10490400000000000080fa00000006000400fa0025
:10491400000f7800110798001e007800e20f500085
:1049240013003200e30f500020003200e10f50006a
:104934002e003a001e009000e20f500007003200e3
:10494400e30f500007003200e10f50000100320075
:10495400060037003503a800040037003523a800fb
:10496400020037003543a800000000002000370093
:104974001e009000e20f500007003200e30f5000c9
:1049840007003200e10f500001003200060037003a
:104994006b03a800040037006b23a8000200370053
:1049a4006b43a80000000000110037001e009000b7
:1049b400e20f500006003200e30f50000600320000
:1049c400e10f500006003a00a103a80005003700db
:1049d400a123a80003003700a143a8000100370069
:1049e400000000000000000001003700000000008b
:1049f4000080fa00000006000400fa00000f7800ae
:104a0400110798001e007800e20f500013003200d6
:104a1400e30f500020003200e10f50002e003a0056
:104a24001e009000e20f500007003200e30f500018
:104a340007003200e10f5000010032000600370089
:104a44003503a900040037003523a900020037000c
:104a54003543a90000000000200037001e0090002c
:104a6400e20f500007003200e30f5000070032004d
:104a7400e10f500001003200060037006b03a9006b
:104a8400040037006b23a900020037006b43a90020
:104a940000000000110037001e009000e20f5000db
:104aa40006003200e30f500006003200e10f500010
:104ab40006003a00a103a90005003700a123a900bc
:104ac40003003700a143a9000100370000000000e3
:104ad4000000000001003700000000000080fa0020
:104ae400000006000400fa00000f78001107980087
:104af4001e007800e20f500013003200e30f500054
:104b040020003200e10f50002e003a001e009000f9
:104b1400e20f500007003200e30f5000070032009c
:104b2400e10f5000010032000600370036a3a80050
:104b34000400370036c3a8000200370036e3a8009b
:104b440000000000200037001e009000e20f50001b
:104b540007003200e30f500007003200e10f50005d
:104b640001003200060037006ca3a80004003700df
:104b74006cc3a800020037006ce3a800000000002a
:104b8400110037001e009000e20f500006003200b2
:104b9400e30f500006003200e10f500006003a0017
:104ba400a2a3a80005003700a2c3a8000300370091
:104bb400a2e3a8000100370000000000000000008c
:104bc40001003700000000000080fa000000060029
:104bd4000400fa00000f7800110798001e00780006
:104be400e20f500013003200e30f500020003200a7
:104bf400e10f50002e003a001e009000e20f50001a
:104c040007003200e30f500007003200e10f5000ac
:104c1400010032000600370036a3a9000400370063
:104c240036c3a9000200370036e3a90000000000e3
:104c3400200037001e009000e20f500007003200f1
:104c4400e30f500007003200e10f50000100320072
:104c5400060037006ca3a900040037006cc3a90048
:104c6400020037006ce3a9000000000011003700c7
:104c74001e009000e20f500006003200e30f5000c7
:104c840006003200e10f500006003a00a2a3a9007a
:104c940005003700a2c3a90003003700a2e3a9005e
:104ca4000100370000000000000000000100370090
:104cb400000000000080fa00000006000200fa0074
:104cc400000f78001e007800e20f5000060032004a
:104cd400e30f500006003200e10f500007003a00d5
:104ce40038e3a800060037006ee3a800040037008c
:104cf400a4e3a80000000000010037000000000049
:104d04000080fa00000006000000fa00c000200045
:104d140050198800c0002000001b8800c00020003b
:104d2400b01c88005e23ef003e23ef003c23ef001d
:104d340000102000601988004e23ef005023ef007c
:104d440020002000e01a880020002000d01a8800eb
:104d54003623ef0080002000a01988004223ef00d2
:104d64004023ef003a23ef003823ef00c000200077
:104d74009019880000202000801988004a23ef0041
:104d84004823ef00900f2000901a88004c23ef0076
:104d94004623ef004423ef002e23ef005423ef00bb
:104da4005623ef005823ef009423ef007423ef0001
:104db4007223ef0010102000101b88008423ef00e2
:104dc4008623ef0020002000901c88002000200093
:104dd400801c88006c23ef0080002000501b88009a
:104de4007823ef007623ef007023ef006e23ef00ab
:104df400c0002000401b880000202000301b8800d9
:104e04008023ef007e23ef00900f2000401c8800d9
:104e14008223ef007c23ef007a23ef006423ef006a
:104e24008a23ef008c23ef008e23ef00ca23ef00c8
:104e3400aa23ef00a823ef0010102000c01c880054
:104e4400ba23ef00bc23ef0020002000401e88009e
:104e540020002000301e8800a223ef0080002000e4
:104e6400001d8800ae23ef00ac23ef00a623ef0063
:104e7400a423ef00c0002000f01c880000202000c4
:104e8400e01c8800b623ef00b423ef00900f20004d
:104e9400f01d8800b823ef00b223ef00b023ef0029
:104ea4009a23ef00c023ef00c223ef00c423ef00d6
:104eb4001023ef000e23ef000223ef000423ef0082
:104ec4000c23ef001223ef001423ef001623ef004e
:104ed4001823ef001a23ef001c23ef000823ef0030
:104ee400900f2000501888000623ef000023ef00e5
:104ef4001e23ef002023ef002223ef002423ef00e2
:104f04002623ef002823ef00208922007b000700de
:104f14000868a9002868a8000888a9002888a800ab
:104f240008a8a90028a8a8002be3a80061e3a8000a
:104f340097e3a8000080fa00000006000000fa00d1
:104f440030fa07000868a9002868a9000888a900a1
:104f54002888a90008a8a90028a8a9002a23ef00e6
:104f64006023ef009623ef005e23ef003e23ef0063
:104f74003c23ef002c23ef004e23ef005023ef00df
:104f84005c23ef005a23ef003623ef003423ef00b5
:104f94004223ef004023ef003a23ef003823ef00d1
:104fa4003223ef003023ef004a23ef004823ef00c1
:104fb4005223ef004c23ef004623ef004423ef007d
:104fc4002e23ef005423ef005623ef005823ef0065
:104fd4009423ef007423ef007223ef006223ef00a9
:104fe4008423ef008623ef009223ef009023ef0049
:104ff4006c23ef006a23ef007823ef007623ef00a1
:105004007023ef006e23ef006823ef006623ef00a8
:105014008023ef007e23ef008823ef008223ef003c
:105024007c23ef007a23ef006423ef008a23ef0050
:105034008c23ef008e23ef00ca23ef00aa23ef0096
:10504400a823ef009823ef00ba23ef00bc23ef005e
:10505400c823ef00c623ef00a223ef00a023ef0034
:10506400ae23ef00ac23ef00a623ef00a423ef0050
:105074009e23ef009c23ef00b623ef00b423ef0040
:10508400be23ef00b823ef00b223ef00b023ef00fc
:105094009a23ef00c023ef00c223ef00c423ef00e4
:1050a4001023ef000e23ef000223ef000423ef0090
:1050b4000c23ef001223ef001423ef001623ef005c
:1050c4001823ef001a23ef001c23ef000823ef003e
:1050d4000a23ef000623ef000023ef001e23ef0056
:1050e4002023ef002223ef002423ef002623ef00e8
:1050f4002823ef000080fa00000006000200fa00f6
:10510400000f78001e0078000000e000020032006a
:105114009e007800a18088000080fa00000006004c
:105124000200fa00000f78000080fa000000060078
:105134000000fa00002bef00000620001058880041
:10514400042bef00062bef00082bef000a2bef00d7
:105154000c2bef000e2bef00102bef00122bef00a7
:10516400142bef00162bef00202bef00222bef0067
:10517400302bef00322bef00382bef00402bef00e9
:10518400482bef00502bef003a2bef00422bef009f
:105194004a2bef00522bef003c2bef00442bef0087
:1051a4004c2bef00542bef003e2bef00462bef006f
:1051b4004e2bef00562bef00682bef006c2bef000b
:1051c400702bef00742bef0000402000505b880030
:1051d40000402000705b880000402000905b880045
:1051e40000402000b05b8800a02bef00a42bef0050
:1051f400a82bef00ac2bef00d02bef00d22bef004d
:10520400d42bef00d82bef0000302000b05e8800d4
:1052140000302000d05e8800f02bef00f22bef006e
:10522400f82bef00fa2bef00022cef000c2cef0010
:105234000e2cef00102cef00122cef00142cef00ba
:10524400162cef00182cef001a2cef001c2cef008a
:105254001e2cef00202cef00222cef00242cef005a
:10526400262cef00282cef002a2cef002c2cef002a
:105274002e2cef00302cef00322cef00342cef00fa
:10528400362cef00382cef003a2cef003c2cef00ca
:105294003e2cef001160800000f02000010070003f
:1052a4001060880001eba800802bef00822bef0038
:1052b400842bef00862bef00882bef008a2bef0066
:1052c4008c2bef008e2bef00902bef00922bef0036
:1052d400942bef00962bef00982bef000080fa0040
:1052e400000006000000fa0001eba900002bef000b
:1052f4000006200010588800042bef00062bef0056
:10530400082bef000a2bef000c2bef000e2bef0005
:10531400102bef00122bef00142bef00162bef00d5
:10532400202bef00222bef00302bef00322bef006d
:10533400382bef00402bef00482bef00502bef00f1
:105344003a2bef00422bef004a2bef00522bef00d9
:105354003c2bef00442bef004c2bef00542bef00c1
:105364003e2bef00462bef004e2bef00562bef00a9
:10537400682bef006c2bef00702bef00742bef0009
:105384006a2bef006e2bef00722bef00762bef00f1
:10539400802bef00822bef00842bef00862bef0095
:1053a400882bef008a2bef008c2bef008e2bef0065
:1053b400902bef00922bef00942bef00962bef0035
:1053c400982bef00a02bef00a42bef00a82bef00ed
:1053d400ac2bef00d02bef00d22bef00d42bef003f
:1053e400d82bef0000302000b05e88000030200091
:1053f400d05e8800f02bef00f22bef00f82bef00cb
:10540400fa2bef00002cef00022cef000c2cef0025
:105414000e2cef00102cef00122cef00142cef00d8
:10542400162cef00182cef001a2cef001c2cef00a8
:105434001e2cef00202cef00222cef00242cef0078
:10544400262cef00282cef002a2cef002c2cef0048
